S00A0000504F562E733337F5
S11300000010002051060000990600009906000027
S11300109906000099060000990600009906000060
S11300209906000099060000990600009906000050
S11300309906000099060000990600009906000040
S11300409906000099060000990600009906000030
S11300509906000099060000990600009906000020
S113006099060000F10900003154000099060000CF
S1130070990600009906000099060000215300002B
S1130080990600008563000085540000990600006D
S113009099060000990600009906000099060000E0
S11300A0990600009906000099060000B956000060
S11300B099060000990600009906000099060000C0
S11300C099060000990600009906000099060000B0
S11300D015550000BD540000990600009906000063
S11300E099060000797D0000ED6300009906000088
S11300F09906000099060000990600009906000080
S113010099060000990600009906000010B5054CF8
S1130110237833B9044B13B10448AFF300800123AF
S1130120237010BDF811002000000000B8BB0000CF
S113013008B5034B1BB103490348AFF3008008BD66
S113014000000000FC110020B8BB0000154B002B80
S113015008BF134B9D46A3F5803A00218B460F46FA
S11301601348144A121A08F076FD0F4B002B00D0E6
S113017098470E4B002B00D0984700200021040024
S11301800D000D48002802D00C48AFF3008008F0A1
S113019033FD2000290004F08FFE08F019FD00BF94
S11301A00000080000100020000000000000000013
S11301B0F8110020F02200200000000000000000E0
S11301C000BF704708B50421112001F073FE01211E
S11301D0084801F003FB0221074801F06BFE0221ED
S11301E0064801F067FE0221054801F063FE002382
S11301F0184608BD30253E0002001E000300200002
S113020005002400024BDB6C1B0EDBB21846704762
S1130210B081E00F00B583B01D4B01225A64FFF793
S1130220F1FF03468DF807309DF80730002B0CD101
S1130230184B4AF6E8521A60174B1B68164A43F0EB
S113024004031360134B00221A609DF80730012B3E
S113025005D8124B1B68114A43F400531360104B2A
S11302601B6A23F444130E4A43F488131362084BA5
S11302701B68074A43F4807313600A4B1B68094ADE
S113028043F4F843136000BF03B05DF804FB00BF00
S113029000000E4090310E4098310E4064310E4003
S11302A000400E40A4310E4008B5FFF7B3FF04F040
S11302B09DFD00F02DF804F0D9FC04F00BFD04F0D2
S11302C053FDFFF77FFF04F0E3FC00F013F800BFD9
S11302D008BD00BF704700BF704700BF704700BF34
S11302E0704700BF704700BF704700BF704700BF32
S11302F07047000008B50121044801F06FFAFFF7C8
S11303005FFF00F01FF900BF08BD00BF00350A0001
S113031008B50121024801F061FA00BF08BD00BF21
S113032000350A0084B001900091019B03F1C06381
S11303300393039B009A1A6000BF04B0704784B013
S113034001900091019B03F180630393039B009A46
S11303501A6000BF04B0704700B583B00346009133
S11303608DF807309DF80730002B42D09DF80730F8
S1130370012B3BD09DF80730022B34D09DF8073079
S1130380032B2DD09DF80730042B27D09DF8073080
S1130390052B20D09DF80730062B1AD09DF8073086
S11303A0072B14D09DF80730082B0ED09DF807308A
S11303B0092B07D09DF807300A2B01D107231AE037
S11303C0002318E04FF4404315E00F2313E000230B
S11303D011E000230FE04FF6FF730CE000230AE066
S11303E04FF47F4307E040F6FF7304E04FF6C07319
S11303F001E040F2FF33009A134103F00103002BA4
S113040004D140F2E1310D4800F044FF9DF807208B
S113041013465B0013441B010C3303F1804303F5C3
S113042020430121009A01FA02F211461846FFF70F
S113043086FF00BF03B05DF804FB00BF38B10000C5
S113044000B583B0034600918DF807309DF807305E
S1130450002B42D09DF80730012B3BD09DF807308C
S1130460022B34D09DF80730032B2DD09DF8073094
S1130470042B27D09DF80730052B20D09DF807309A
S1130480062B1AD09DF80730072B14D09DF807309F
S1130490082B0ED09DF80730092B07D09DF80730A4
S11304A00A2B01D107231AE0002318E04FF440433C
S11304B015E00F2313E0002311E000230FE04FF6B3
S11304C0FF730CE000230AE04FF47F4307E040F69B
S11304D0FF7304E04FF6C07301E040F2FF33009A6B
S11304E0134103F00103002B04D14FF482610D4842
S11304F000F0D0FE9DF8072013465B0013441B0157
S11305000C3303F1804303F520430121009A01FADF
S113051002F211461846FFF705FF00BF03B05DF86D
S113052004FB00BF38B1000008B501210A20FFF721
S113053013FF00BF08BD08B501210A20FFF780FFA3
S113054000BF08BD30B587B03B4B6C461D460FCD90
S11305500FC495E8030084E803000121374801F043
S11305603DF90121364801F039F901238DF80E30A7
S1130570344B02936B461946334804F067FA01235F
S1130580042200210A2003F043FC0023012202215B
S11305900A2003F03DFC012304220721052003F077
S11305A037FC0123042201210A2003F031FC264BED
S11305B0264A9A67244B0B225A674FF4487004F07A
S11305C049FCFFF7B1FF142004F044FCFFF7B3FF2C
S11305D0232004F03FFCFFF7A7FFB9211A4804F0D9
S11305E027FBFFF7A8FF0023002200210A2003F0C5
S11305F00FFC0023002202210A2003F009FC01233E
S113060000220721052003F003FC0123002201211D
S11306100A2003F0FDFB0C4804F09EFA0A4B00226A
S11306209A67094B00225A670021054801F0D6F861
S113063000BF07B030BD00BF9CB1000000350A0008
S11306400062040000127A00000801401E1D00121E
S113065000B585B000F0A2F80C4B03930C4B029349
S11306600B4B01930B4B00930AE0039A131D039366
S1130670029B191D029112681A60019B04330193B5
S1130680019A009B9A42F0D3FFF760FDC0BB0000C3
S113069000100020F8110020FEE7000000B583B030
S11306A000F020F801900A4BD3F808311B0AC3F379
S11306B008030093009B0133019AB2FBF3F3019307
S11306C0044A019B1360019B184603B05DF804FBC8
S11306D000400E4008100020014B1846704700BF30
S11306E000F0490282B01A4BD3F8943003F00703A8
S11306F0023B032B1BD801A252F823F01D07000074
S1130700150700000D07000025070000114B1B68AA
S1130710019310E04FF4004301930CE00E4B1B686F
S1130720019308E00D4B1B685B08019303E00B4B3E
S11307301B68019300BF064BD3F800311B0A03F07A
S11307401F030133019AB2FBF3F3184602B070475A
S113075000400E4004100020001000200C10002067
S1130760014B1B68184670470010002000B583B089
S11307700190084A019B1360074BD3F8943003F0AF
S11307800703022B01D1FFF789FF00BF03B05DF817
S113079004FB00BF0010002000400E40064B074A37
S11307A09A60054BD3F88830034A43F47003C2F8C7
S11307B0883000BF704700BF00ED00E0000000007B
S11307C04FF40043184670474FF47A731846704745
S11307D0014B1B68184670470410002084B0019038
S11307E00B4B1A68019B13440A4A934202D94FF0F7
S11307F0FF3309E0064B1B680393054B1A68019B02
S11308001344034A1360039B184604B0704700BFA7
S1130810101000200000042000B585B00190009164
S1130820204B1B7883F00103DBB2002B01D01E4B5D
S113083034E0019B002B01D11C4B2FE002F056F950
S113084002900023039322E0194A039B1B011344E3
S11308500C331B7883F00103DBB2002B14D0039A12
S1130860019B1A60124A039B1B0113440C3301229F
S11308701A700F4A039B1B01134400221A6002984A
S113088002F043F9002309E0039B01330393039B24
S1130890072BD9DD029802F038F9064B184605B04B
S11308A05DF804FB14120020028000F0018000F0C7
S11308B018120020048000F000B585B00190164B9A
S11308C01B7883F00103DBB2002B01D0134B1FE034
S11308D0019B072B01D9124B1AE002F007F9039090
S11308E0104A019B1B0113440C331B78002B0BD0C3
S11308F00C4A019B1B0113440C3300221A70039809
S113090002F003F9002303E0039802F0FEF8064B1B
S1130910184605B05DF804FB14120020028000F0B4
S1130920018000F018120020068000F000B585B0A8
S1130930194B1B68019300238DF8043002F0D6F89C
S11309400290164B1B78002B04D0029802F0DDF8BD
S1130950134B1DE0114B01221A70029802F0D5F8D6
S11309600023039309E00F4A039B1B0113440C3338
S113097000221A70039B01330393039B072BF2DDC0
S113098004238DF8073001AB184603F0F5FC00236F
S1130990184605B05DF804FBB4B100001412002041
S11309A0038000F01812002000B58DB00B900A915E
S11309B009920893129B0793119B06939DF840306C
S11309C005930F9B04939DF83830039300230293FF
S11309D0089B0193099B00930A9B0B9A002100201A
S11309E000F078F8034618460DB05DF804FB0000EB
S11309F000B587B0344B1B6E0393334BDB6E039A05
S1130A0013400393039B002B00DAFEE700230593B6
S1130A100123049350E0039A049B1340002B45D018
S1130A20294A049B9366059B1B01284A134402939D
S1130A30029B1B68002B39D0029B9B685A1C029BAB
S1130A409A60029B1B68029A9168029A5268059800
S1130A5098470346002B14BF01230023DBB283F025
S1130A600103DBB28DF807309DF8073003F0010372
S1130A708DF80730029B5B7B012B17D19DF8073063
S1130A80002B13D0124A059B5B01134403F10802A7
S1130A9013796FF3410313710D4A059B5B011344F2
S1130AA003F1180213796FF341031371059B0133AA
S1130AB00593049B5B000493059B072BABD900BFF4
S1130AC007B05DF804FB00BF00200E4018120020A0
S1130AD09812002010B58AB00292019303468DF853
S1130AE00F300B468DF80E307B4B1B7883F00103DF
S1130AF0DBB2002B01D0794BEBE0029B072B10D823
S1130B000C9B002B0DD00D9B002B0AD0109BB3F532
S1130B10006F06DC9DF80F30012B04D10E9B002BD7
S1130B2001D16F4BD5E0029B1B016E4A134409931C
S1130B30099B1B7B83F00103DBB2002B01D06A4BC2
S1130B40C7E004AB00221A605A609A60DA60029B24
S1130B505B01664A134408939DF80E30002B1DD1A7
S1130B60089B1A460023136053609360D360089A6D
S1130B70937843F010039370089AD37843F03003CA
S1130B80D3709DF83C3083F00103DBB2002B22D0FC
S1130B90089AD37843F00303D3701CE0089B1A46E9
S1130BA00023136053609360D360089A937843F0F2
S1130BB010039370089AD37843F00303D3709DF81D
S1130BC03C3083F00103DBB2002B04D0089AD378C5
S1130BD043F03003D370019B0493109B9BB2013B01
S1130BE09BB2C3F30A0399B2089A138861F30E13F4
S1130BF013800C9A089B9A600D9A089B5A609DF882
S1130C00443003F00303D9B2089AD37861F3830321
S1130C10D3709DF80F30012B3BD1089A137B43F01E
S1130C2001031373089A137B43F002031373089AA6
S1130C30D368042161F39F03D3602C4A029B5B01B8
S1130C40134403F11002089B14460FCB84E80F00F1
S1130C50264A029B5B01134403F1180253686FF0A8
S1130C60030161F39F0353600E9A2049029B5B01C9
S1130C700B4414331A609DF80E30012B09D10D9AE0
S1130C801A49029B5B010B4418331A600E9A089BA5
S1130C905A60129B002B08D19DF80F30002B04D111
S1130CA0089A93786FF304139370099B129A1A604D
S1130CB0099B139A5A60099B00229A60099B9DF82C
S1130CC00F205A73029B04A9089A184603F0C2FB2A
S1130CD0002318460AB010BD14120020028000F050
S1130CE0018000F018120020078000F09812002004
S1130CF086B0039002910192039B03F10473DA001E
S1130D00029B13449B000593059B019A1A6000BF44
S1130D1006B0704700B587B003900291019201F0CC
S1130D20D1FE0590039B1A68029BDB431A4001998C
S1130D30029B0B401A43039B1A60059801F0CDFEF9
S1130D4000BF07B05DF804FB88B001900B468DF836
S1130D50033013468DF802309DF80230002B04D086
S1130D60102305936A4B069303E000230593694B14
S1130D700693019B5B6B069A13400493002307932D
S1130D80019B654A934240F0C080644B03939DF8F5
S1130D900330022B43D0022B04DC002B0AD0012B9E
S1130DA022D0A7E0062B75D0812B00F08680032B80
S1130DB052D09FE0039B1B681B0A1B0203F4FE43F3
S1130DC0079A13430793039B1B6803F00F03079AC7
S1130DD013430793039B1B681B091B0103F0F003D8
S1130DE0079A1343079388E0039B1B681B0E1B029F
S1130DF003F4FE43079A13430793039B1B681B0CDE
S1130E0003F00F03079A13430793039B1B681B0DFF
S1130E101B0103F0F003079A134307936DE0039B50
S1130E2004331B681B0A1B0203F4FE43079A134393
S1130E300793039B04331B6803F00F03079A1343C0
S1130E400793039B04331B681B091B0103F0F00386
S1130E50079A1343079350E0039B04331B681B0E4C
S1130E601B0203F4FE43079A13430793039B0433C3
S1130E701B681B0C03F00F03079A13430793039B90
S1130E8004331B681B0D1B0103F0F003079A134383
S1130E90079332E0039B08331B6803F00F03079AA0
S1130EA013430793039B08331B681B091B0103F0BF
S1130EB0F003079A134307931FE0039B04331B6853
S1130EC01B0A1B0203F4FE43079A13430793039B75
S1130ED004331B6803F00F03079A13430793039B20
S1130EE004331B681B091B0103F0F003079A134327
S1130EF0079302E00023079300BF079A059B9A40DB
S1130F00049B1A43019B5A6300E000BF08B070477A
S1130F10FFFF00800080FFFF002000401082E00FF0
S1130F2000B589B001900091009BDB788DF81B30EF
S1130F30019B474A934204D04FF4BD71454800F0E9
S1130F40A9F99DF81B30002B07D10021424800F07D
S1130F5043F903468DF81B3024E0019B1B6803F022
S1130F608003002B1ED100213B4800F035F90346D5
S1130F701A469DF81B30934204D240F2851135483D
S1130F8000F088F900214FF4FA4000F025F90346F7
S1130F901A469DF81B30934204D94FF4C3712D486F
S1130FA000F078F9019B0A229A60009B1B781A06CC
S1130FB0009B9B781B0403F4FE031A439DF81B302B
S1130FC01B0203F4FE431343009A5278134307931E
S1130FD0009B1B79002B03D0079B43F0100307935E
S1130FE0019B079A1A600198009B5B791A46C021FD
S1130FF0FFF790FE019B1B6803F08003802B22D136
S1131000164B049300230593049800F055FC0390B9
S1131010019B0F4A934204D1114800F04DFC059006
S113102004E04FF4DB710B4800F034F9039A1346E3
S11310305B0013445B08059A9A4204D24FF4DC71B6
S1131040044800F027F900BF09B05DF804FB00BFB5
S113105000200040B8B100000024F400B8003200C1
S113106000D2040000B585B001900091019B584A5C
S1131070934204D04FF45471564800F00BF9019B8D
S113108002229A60009B9B78002219460198FFF780
S11310905BFE009B5B781A06009B1B791B021A43BC
S11310A0009B5B791B041A43009BDB78DB00134332
S11310B00393009BDB79002B03D0039B43F0005385
S11310C00393009B1B7A002B03D0039B43F0040380
S11310D00393009B9B79002B03D0039B43F00203F3
S11310E00393009B5B7A002B03D0039B43F0010323
S11310F00393009B1B79F32B0DD1009B9B78002B52
S113110009D1009B5B78032B05D8039B23F0706304
S113111043F080630393009B9B785BB2002B04DA5B
S1131120039B43F0E003039305E0009B9B785B0182
S1131130039A13430393019B039A1A61019B5B690E
S113114023F4F21323F007030393009B9B785BB211
S1131150002B06DA009B9B7823F08003039A134349
S11311600393009B1B785B04039A13430393009B34
S1131170DB7A002B03D0039B43F480430393019B4E
S1131180039A5A610198009B9B7A1A460221FFF741
S1131190AFFD019BDB6F0393019BD3F88020039B7E
S11311A01340002B04D04FF46E710A4800F072F81B
S11311B0019BDB6803F44063002B04D040F2B93197
S11311C0044800F067F800BF05B05DF804FB00BFF9
S11311D000200040B8B1000000B585B00190009136
S11311E0019B164A934202D9144B019306E0019BDA
S11311F0B3F5FA4F02D24FF4FA430193009B002B4C
S113120003D10F4800F058FB0090009A019B13444F
S11312105A1E019BB2FBF3F30393039B002B02D0F2
S1131220039B013B0393039B7F2B01D97F230393F0
S1131230039BDBB2184605B05DF804FB0024F40000
S11312404041050000B583B00190019B002B08D1FB
S11312500E4800F031FB0190019B002B01D10123CA
S11312600193019B03F5742303F23F230193019B34
S1131270074AA2FB03239B0C0193019BDBB2013BB6
S1131280DBB2184603B05DF804FB00BF4041050023
S113129083DE1B4382B001900091FEE700B583B06A
S11312A00190019B1F2B04D940F225110548FFF73B
S11312B0F1FF0122019B02FA03F3184603B05DF823
S11312C004FB00BF1CB2000086B00390029101929F
S11312D0039B03F10473DA00029B13449B00059300
S11312E0059B019A1A6000BF06B0704784B0019054
S11312F00091019B03F10473DA00009B13449B00EB
S11313000393039B1B68184604B07047054B1B6886
S113131003F04003002B01D1012300E00023184611
S1131320704700BF3C300E4008B5FFF7EFFF03469F
S113133083F00103DBB2002B08D100BF1221044863
S1131340FFF7D4FF0346002BF8D100E000BF08BD2F
S113135004300E4008B5FFF7E7FF044B5B681B0C35
S113136003F00303DBB2184608BD00BF00300E4093
S113137000B585B0019001230393019B124A934267
S113138004D8002303930023029308E0019B0F4A2F
S1131390934202D80123029301E002230293039AA9
S11313A010210B48FFF790FF094BD3F8003123F0CD
S11313B08072029B1B0606491343C1F8003100BF2B
S11313C005B05DF804FB00BF0048E8010090D003BD
S11313D000400E4082B0034B1B680193019B1846EA
S11313E002B070471410002000B583B0FFF77AF9FB
S11313F00190074BD3F800311B0A03F01F0301339C
S1131400019A02FB03F3184603B05DF804FB00BF26
S113141000400E4000B583B0104800F049FC03467C
S11314208DF803309DF80330072B05D0092B07D125
S1131430FFF758F901900BE0FFF7CCFF019007E0AC
S11314400023019341F2EC010548FFF723FF00BF9D
S1131450019B184603B05DF804FB00BF06000E00B4
S1131460E8B2000000B585B00190019B002B1FD1AC
S1131470214800F01DFC03468DF80B3000BF9DF899
S11314800B30013B072B29D801A252F823F000BFEF
S1131490BF140000DD140000DD140000CD140000B2
S11314A0DD140000DD140000C5140000D514000094
S11314B041F20C111148FFF7EDFE002317E0002361
S11314C0039313E0FFF786FF03900FE0FFF748F95B
S11314D003900BE0FFF788FF039007E000230393DA
S11314E041F223110548FFF7D5FE00BF039B1846C0
S11314F005B05DF804FB00BFB8003200E8B200009C
S113150000B585B0019000911F4B5B6803F04073F8
S113151003930023029312E01C4A029BDB00134452
S11315201A79009BDBB29A4206D1184A029B52F800
S11315303330019A9A4206D9029B01330293029BEB
S1131540042BE9D900E000BF029B052B07D103233C
S1131550039341F22A210E48FFF79CFE05E00B4A53
S1131560029BDB0013445B790393039B1B060393E9
S1131570054B5B6823F040720349039B13434B60A4
S113158000BF05B05DF804FB00000E404CB3000042
S1131590E8B2000000B583B00E4B1B6C002B14BFE7
S11315A0012300238DF807300A4B41F671321A6487
S11315B0FFF792F8034600211846FFF7A1FF9DF8B4
S11315C00730002B02D0034B00221A6400BF03B083
S11315D05DF804FB00000E4000B585B00190009159
S11315E00D4B1B6C002B14BF012300238DF80F300F
S11315F0094B41F671321A6400990198FFF780FF94
S11316009DF80F30002B02D0034B00221A6400BF58
S113161005B05DF804FB00BF00000E4086B00190E9
S11316200F230593019B03330493059B0393039AB0
S1131630049B934228BF13460293029B1B07029309
S1131640029B184606B07047034B5B6A1B0903F004
S113165003031846704700BF00400E4082B001905B
S1131660054B5B6A23F03002019B1B0102491343C3
S11316704B6200BF02B0704700400E4010B584B00A
S1131680019000230293019B3B4A93420BD03B4AB7
S1131690934208D03A4A934205D041F22A3139485C
S11316A0FFF7F8FD00E000BF019800F001FB0346DE
S11316B00393019B304A93420CD0304A934210D09A
S11316C02F4A934214D1304BD3F8803003F00703F0
S11316D0039313E02C4BD3F8843003F007030393F4
S11316E00CE0294BD3F8883003F00703039305E09B
S11316F041F259312348FFF7CDFD00BF039B042B72
S11317002DD801A252F823F0591700001D1700002C
S113171025170000351700002D170000FFF750F8BB
S1131720029024E0FFF754F8029020E0FFF74CF811
S113173002901CE0FEF7D6FF0446134BD3F80031A9
S11317401B0E03F0010301331846FFF7A7FD034600
S1131750B4FBF3F302930AE00023029307E00023AF
S1131760029341F2AB310748FFF794FD00BF029B9F
S1131770184604B010BD00BF03002000050024007B
S113178002001E00E8B2000000400E4082B001904A
S1131790094BD3F8443103F00103002B08D100BFF7
S11317A0054BD3F84021019B1340002BF8D100E0F6
S11317B000BF02B0704700BF00400E4000BF70473A
S11317C000BF704700B583B00190019800F092F912
S11317D003460133184603B05DF804FB00B587B037
S11317E001900B468DF8033000230493019B1B0AE0
S11317F003F00F03013B092B32D801A252F823F066
S11318002918000035180000611800006118000054
S11318102F1800003B180000451800006118000054
S11318204F1800005B1800001B4B05931EE01B4B78
S113183005931BE01A4B059318E01A4B05930123FB
S1131840049313E0184B0593102304930EE0174BF5
S113185005934FF48033049308E0154B059305E09A
S113186041F2C7711348FFF715FD11E0019B1B0BF3
S113187003F01F030393049B002B02D00498FFF78B
S113188085FF9DF803301A4603990598FFF71CFD60
S113189007B05DF804FB00BF00400E40B0400E40AE
S11318A0C0400E40E0400E40E8400E40F0400E4084
S11318B050410E40E8B2000010B584B00190019B85
S11318C003F47813B3F5B01F00F09480B3F5B01FA0
S11318D021D8B3F5202F58D0B3F5202F08D8B3F56D
S11318E0003F56D0B3F5802F40D0002B3AD0EBE028
S11318F0B3F5602F00F0D080B3F5602F03D8B3F5B3
S1131900402F55D0E0E0B3F5801F00F0C980B3F557
S1131910A01F61D0D8E0B3F5101F00F0B880B3F574
S1131920101F0BD8B3F5F01F51D0B3F5001F00F012
S11319308280B3F5D01F00F08380C5E0B3F5401F6B
S113194000F09180B3F5401F03D8B3F5381F63D07E
S1131950BAE0B3F5481F00F0A780B3F5781F00F094
S1131960A880B1E0FEF7BEFE0390B5E0FEF7BAFE34
S113197003905B4BD3F80C311B0AC3F30803013308
S1131980039AB2FBF3F30393A6E0FEF7ABFE0390D6
S1131990A2E0FEF7A7FE0390514BD3F808311B0ACF
S11319A0C3F308030133039AB2FBF3F3039393E005
S11319B0FEF798FE03904A4BD3F814311B0A03F048
S11319C01F030133039AB2FBF3F3039384E0454806
S11319D0FFF754FE03907FE04348FFF74FFE039068
S11319E03F4BD3F8303103F00303039A22FA03F395
S11319F0039371E03B48FFF741FE0390384BD3F863
S1131A00203103F00F031846FFF748FC0246039BFE
S1131A10B3FBF2F303935FE03248FFF72FFE03902A
S1131A202F4BD3F820311B0903F00303039A22FA46
S1131A3003F3039350E02D48FFF720FE03904BE09F
S1131A402A48FFF71BFE0390254BD3F828311B09C6
S1131A5003F003031846FFF721FC0246039BB3FB84
S1131A60F2F3039338E02148FFF708FE03901C4B80
S1131A70D3F828311B0A03F0030304331846FFF795
S1131A800DFC0246039BB3FBF2F3039324E01648D8
S1131A90FFF7F4FD03901FE0FFF7BCFC03901BE08D
S1131AA0FFF798FC039017E00020FFF7DBFC03909E
S1131AB012E0FEF717FE04460198FFF783FE034683
S1131AC0B4FBF3F3039307E00023039341F6F70118
S1131AD00748FFF7DFFB00BF039B184604B010BDA7
S1131AE000400E4002001E000500240003002000F8
S1131AF0E8B2000000B585B00190019B1B0903F01A
S1131B000F030293029B013B092B00F2B68001A252
S1131B1052F823F03D1B00004D1B00005D1B00002C
S1131B207D1B00007B1C00007B1C00008D1B000043
S1131B309D1B0000F51B0000531C0000554BD3F8FF
S1131B4000311B0A03F01F0303939EE0514BD3F8AB
S1131B5014311B0A03F01F03039396E04D4BD3F893
S1131B6000311B0E03F001030393039B013318465A
S1131B70FFF794FB0346013B039386E0454BD3F800
S1131B800C311B0AC3F3080303937EE0414BD3F8E3
S1131B9008311B0AC3F30803039376E0019B3E4A12
S1131BA0934203D03D4A93420DD01AE0394BD3F807
S1131BB0203103F00F0303930398FFF76FFB0346F1
S1131BC0013B039315E0334BD3F820311B0903F099
S1131BD0030303930398FFF761FB0346013B03935D
S1131BE007E00023039341F66B112D48FFF752FBE6
S1131BF000BF4AE0019B2B4A934203D02A4A9342F6
S1131C000ED01DE0234BD3F828311B0903F0030346
S1131C1003930398FFF742FB0346013B039317E04A
S1131C201C4BD3F828311B0A03F003030393039BD3
S1131C3004331846FFF732FB0346013B039307E0E6
S1131C400023039341F68F111548FFF723FB00BFD0
S1131C501BE0019B154A934206D10E4BD3F8303159
S1131C6003F00303039307E00023039341F69E115B
S1131C700B48FFF70FFB00BF07E00023039341F677
S1131C80C3110748FFF706FB00BF039B184605B0C6
S1131C905DF804FB00400E408006160080162E00FE
S1131CA0E8B2000090171A0090273000A009140031
S1131CB000B585B0019001238DF80F30019B03F02E
S1131CC00F030293029B013B072B00F2DF8001A26A
S1131CD052F823F0F51C0000571D00008F1D000072
S1131CE08D1E0000DF1D0000171E00008D1E000069
S1131CF0411E00006D4BD3F8943003F00703023B00
S1131D00052B23D801A252F823F000BF351D000093
S1131D102D1D0000251D00003D1D00004D1D00006F
S1131D20451D000002238DF80F3013E003238DF8C6
S1131D300F300FE004238DF80F300BE00B238DF8E8
S1131D400F3007E00C238DF80F3003E005238DF8E6
S1131D500F3000BFA3E0554BD3F8803003F00703E6
S1131D60022B07D0042B09D0012B0BD103238DF8B0
S1131D700F300BE002238DF80F3007E00A238DF8B3
S1131D800F3003E001238DF80F3000BF87E0474B8D
S1131D90D3F8843003F00703013B032B1AD801A2C4
S1131DA052F823F0B51D0000BD1D0000CD1D00003C
S1131DB0C51D000003238DF80F300FE002238DF8BA
S1131DC00F300BE00A238DF80F3007E006238DF85F
S1131DD00F3003E001238DF80F3000BF5FE0334B79
S1131DE0D3F8883003F00703022B07D0042B09D063
S1131DF0012B0BD103238DF80F300BE002238DF858
S1131E000F3007E00A238DF80F3003E001238DF82B
S1131E100F3000BF43E0254B1B6F03F00103002B81
S1131E2005D0012B07D109238DF80F3007E00723D4
S1131E308DF80F3003E001238DF80F3000BF2EE042
S1131E401A4BD3F85C3103F03003102B0DD0102B58
S1131E5002D8002B05D014E0202B0AD0302B0CD054
S1131E600FE001238DF80F300FE007238DF80F30BA
S1131E700BE004238DF80F3007E008238DF80F30B2
S1131E8003E001238DF80F3000BF08E000238DF834
S1131E900F3041F617510648FFF7FCF900BF9DF8D3
S1131EA00F30184605B05DF804FB00BF00400E403B
S1131EB0E8B2000000B58BB001900B468DF80330FA
S1131EC00323099303238DF823300023069300236F
S1131ED00593019B112B1BD19DF80330042B03D1D7
S1131EE0FEF73EFC05900CE09DF80330052B08D16D
S1131EF000F0F4F90246BD4B9A4202D900F0EEF923
S1131F000590059B002B03D00021059800F08AFE64
S1131F10019B03F00F030493049B013B072B00F286
S1131F205B8101A252F823F0491F000053200000F6
S1131F3089200000D9210000692000002D21000023
S1131F40D9210000592100009DF80330023B0A2BDF
S1131F5048D801A252F823F0851F0000911F000009
S1131F609D1F0000AF1F0000E51F0000E51F0000DB
S1131F70E51F0000E51F0000D91F0000C11F00007D
S1131F80CD1F00000423099300238DF823302FE094
S1131F900323099301238DF8233029E002230993B5
S1131FA002238DF823309248FFF7E2F920E0012361
S1131FB0099303238DF823308D48FFF7D9F917E0EF
S1131FC00523099303238DF8233011E00723099394
S1131FD006238DF823300BE041F6D8518548FFF7EE
S1131FE059F9FFE041F6DD518248FFF753F9F9E072
S1131FF09DF82330062B06D09DF8233001220121C1
S1132000184600F0F5FAFFF7C5FAFFF7D7FB059B72
S1132010002B01D0FFF788F9774A099B5367FEF735
S11320203DFB0390FEF75EFB03461846FFF7A0F95D
S1132030FFF790F9034619460398FFF7CDFA059B7D
S1132040002B03D10121002000F0ECFDFFF7B8FBC9
S1132050C8E06A4B06939DF80330062B04D141F681
S11320601C616448FFF716F9069B002B01D0069B00
S113207000E0634B06939DF80330062B04D141F630
S11320802C615C48FFF706F9069B002B01D0069BE8
S113209000E05C4B06939DF80330013B092B3BD8D1
S11320A001A252F823F000BFD1200000D720000085
S11320B0E72000001921000019210000F72000008A
S11320C0192100001921000019210000132100002A
S11320D00023079326E001220121002000F088FA62
S11320E0022307931EE001220121012000F080FA5F
S11320F00123079316E0FEF7F5FA03461846FFF7A7
S113210037F9012202214048FFF7DEF80323079341
S113211008E00423079305E041F657613548FFF7CB
S1132120B9F85FE0069B079A1A605BE09DF80330FC
S1132130072B02D0092B04D007E02F4B00221A678B
S113214009E02D4B01221A6705E041F6E1612948B7
S1132150FFF7A0F846E045E09DF80330013B072B6C
S113216028D801A252F823F089210000B5210000EB
S1132170B52100009F210000B5210000B521000019
S11321808F210000AF2100000023079318E00122F3
S11321900121042000F02CFA0123079310E001220E
S11321A00121022000F024FA0223079308E003230C
S11321B0079305E041F63F710E48FFF76BF811E015
S11321C00D4BD3F85C3123F03002079B1B010A4905
S11321D01343C1F85C3105E042F216010548FFF7EC
S11321E059F800BF0BB05DF804FB00BF002D3101AE
S11321F00148E801E8B2000000400E4080400E4073
S113220088400E4084400E40B0400E4082B00190A1
S1132210019B274A93422FD0254A934210D8254A3E
S1132220934221D0234A934203D8234A93421BD09A
S11322303AE0224A934217D0214A934218D033E01D
S1132240204A934224D01F4A934206D81E4A9342FE
S113225016D01E4A934217D026E01D4A93421BD043
S11322601C4A93421CD01FE01B4BD3F880301CE067
S1132270194BD3F88C3018E0174BD3F8983014E08E
S1132280154BD3F89C3010E0134BD3F8A0300CE07E
S1132290114BD3F8A83008E00F4BD3F8AC3004E06E
S11322A00D4BD3F8B03000E00023184602B070475D
S11322B0405DC60080841E0040420F0000093D00BE
S11322C0C0CF6A0080BA8C010024F400C0EA210166
S11322D00048E80180D54302B081E00F014B1B6840
S11322E0184670470C10002000B587B00190019883
S11322F0FFF78CFF0590059B002B03D0059BB3F1E2
S1132300FF3F04D142F2E1114E48FEF7C3FF4E4BAA
S11323101B6804934C4A019B13601120FFF7C8FC0F
S11323200346052B03D1FFF735F9FFF747FA00BF42
S113233018214648FEF7DAFF0346002BF8D1059B27
S1132340B3F1FF3F04D142F2F2113E48FEF7A2FF7F
S1132350019B3F4A93420DD03E4A934211D03E4ADC
S1132360934200D012E0059B23F0C06343F08063E6
S113237005930BE0059B23F0C06343F000730593C2
S113238004E0059B23F0C063059300BF1120FFF711
S11323908FFC0346052B02D10198FEF7E9FF019A51
S11323A0049B9A4203D90121019800F03BFC2B4A7B
S11323B0059B13611120FFF77BFC0346052B26D1F7
S11323C0FEF76CF90390039A019B9A4204D942F2F6
S11323D01E211C48FEF75EFF1B4B1B68039A9A42A2
S11323E004D942F21F211748FEF754FF164B1B680D
S11323F0019A9A4204D042F220211248FEF74AFF81
S1132400FEF7A8FF034619460398FFF7E5F8FEF721
S113241069F903461846FEF7ABFF019A049B9A42FA
S113242003D80121002000F0FDFB1120FFF740FC40
S11324300346052B01D1FFF7C3F900BF07B05DF8D0
S113244004FB00BFE8B200000C10002040410E4025
S113245080841E0000093D0040420F0000400E40F1
S113246010B584B001901120FFF722FC0346042B21
S113247004D142F2FF213748FEF70CFF012200216C
S1132480022000F0B5F8019B5B78002B07D1019B7B
S11324909B78002B03D1019BDB78002B04D042F204
S11324A03D312C48FEF7F6FE00230393019B1B7C71
S11324B0012B04D142F242312648FEF7EBFE019B88
S11324C01B7C022B01D101230393234B5B6A23F072
S11324D001022149039B13434B62019B1B781A465B
S11324E008211E48FEF7F0FE019B9B88DB02019A3F
S11324F0527A1146184A0B43D362174B1B6B03F0F5
S11325007F62019BDB88DB021343019A927A1A43B0
S1132510019B1B7ADB0142EA0304019B1B7A1846E8
S1132520FFF77CF803460C4A23431363019B5B7B50
S11325301A03019B9B7B1B011343019AD27B1A4311
S1132540019B1B7B1B04044913434B6300BF04B072
S113255010BD00BFE8B2000000400E4024400E4011
S113256000B585B001901120FFF7A2FB0346022BB2
S113257004D142F2BD311448FEF78CFE134B9A6B22
S1132580134B1340019A12781A43019B5B78DB02C8
S11325901A43019B9B781B061A43019BDB781B02A1
S11325A013430393094B9B6B039A9A4207D001226E
S11325B00021002000F01CF8044A039B936300BF31
S11325C005B05DF804FB00BFE8B2000000400E4017
S11325D080E4FFF882B00346ADF80630034ABDF844
S11325E00630138000BF02B0704700BF18100020EF
S11325F000B589B003468DF807300B468DF80630D8
S113260013468DF805309DF80730042B3BD801A202
S113261052F823F0712600005F2600003B260000DC
S1132620292600004D26000001230593022304936C
S113263001230793002306932BE004230593082327
S11326400493032307930223069322E010230593A4
S113265020230493052307930423069319E04023BE
S1132660059380230493072307930623069310E01E
S11326704FF4807305934FF4007304930923079375
S11326800823069305E042F264414948FEF702FE3E
S11326908BE09DF80630002B6AD000238DF80F30B4
S11326A09DF80730022B1BD1FEF7CEFF0346002B0B
S11326B016D1404BDB6B03F48063002B04D142F250
S11326C073413B48FEF7E6FD01238DF80F303A4B8A
S11326D05B6A03F00103012B02D10120FEF7BEFF68
S11326E0354A059B136600BF06993448FEF7FEFD84
S11326F00346002BF8D09DF80530002B55D000BFC1
S113270007992E48FEF7F2FD0346002BF8D09DF8FA
S11327100730022B49D19DF80F30002B45D0264BB2
S11327205B6A03F00103012B05D101222021022061
S113273000F08EF903E00021022000F02DF90220C0
S113274000F03EF80290012200210220FFF750FF22
S11327500299022000F074F8174A059B136600BF23
S113276007991648FEF7C2FD0346002BF8D01CE07B
S1132770114A049B136600BF0F4BD3F8903001211C
S1132780069A01FA02F21340002BF5D19DF80530A8
S1132790002B0AD000BF084BD3F890300121079AD0
S11327A001FA02F21340002BF5D109B05DF804FBE5
S11327B0E8B2000000300E4000400E4090400E4051
S11327C000B585B003468DF807309DF80730013B0E
S11327D0032B24D801A252F823F000BFED270000F8
S11327E011280000F927000005280000124B1B6A7D
S11327F0C3F3080303931AE00F4B1B6903F07F0331
S1132800039314E00C4B9B6903F07F0303930EE0E6
S1132810094BD3F89C30C3F30A03039307E0002366
S1132820039342F2F0410548FEF734FD00BF039BD9
S1132830184605B05DF804FB00400E40E8B2000005
S113284000B585B0034600918DF807309DF8073038
S1132850013B032B00F28D8001A252F823F000BF4C
S11328607128000025290000B1280000EB28000091
S1132870009BB3F5007F04D342F216514248FEF7A1
S113288009FD009BC3F30803009300BF1A213F48CE
S1132890FEF72CFD0346002BF8D13D4B1B6A23F4B5
S11328A0FF7323F001033A49009A13430B6266E075
S11328B0009B7F2B04D942F223513348FEF7EAFCF4
S11328C0009B03F07F03009300BF18212F48FEF7FD
S11328D00DFD0346002BF8D12D4B1B6923F07F021D
S11328E02B49009B13430B6149E0009B7F2B04D9C8
S11328F042F23E512448FEF7CDFC009B03F07F03D7
S1132900009300BF19212148FEF7F0FC0346002B79
S1132910F8D11F4B9B6923F07F021D49009B134391
S11329208B612CE01A4BD3F8903003F00403002B96
S113293004D042F24D511448FEF7ACFC144B5B6AD0
S113294023F03003124A43F010035362009BDB0967
S113295003F00F031846FEF761FE03900C4B1A6B4D
S11329600C4B1340009A1A430949039B13430B630E
S113297005E042F267510448FEF78CFC00BF00BF3B
S113298005B05DF804FB00BFE8B2000040410E4012
S113299000400E4000F8FF0F00B585B003460A461C
S11329A08DF8073013468DF806309DF80730022B5A
S11329B004D042F27F512348FEF76CFCFEF744FE3C
S11329C00346002B03D14FF4400303931CE09DF80E
S11329D00630202B04D0302B0AD0002B04D00BE07F
S11329E04FF4000303930FE04FF4400303930BE011
S11329F04FF44003039307E0134B039342F29A51BD
S1132A001048FEF747FC00BF00BF104BD3F89020DE
S1132A10039B1340039A9A42F7D1039B03F4800368
S1132A20002B0AD0094BD3F8A03003F48063002BA9
S1132A3014BF01230023DBB200E00123184605B0D4
S1132A405DF804FBE8B20000FF33E10700400E40EC
S1132A5000B583B003468DF807300B468DF8063079
S1132A6013468DF805309DF80730022B1AD19DF8D6
S1132A700630002B08D0114B4FF48062C3F8A82015
S1132A800E4A9DF8063053669DF80530002B0FD092
S1132A909DF806209DF8073011461846FFF77CFF85
S1132AA0034607E042F2D0510548FEF7F3FB00E08D
S1132AB000BF0123184603B05DF804FB00400E403C
S1132AC0E8B2000082B0EFF310830093009B0193FF
S1132AD072B6019B184602B0704782B00190019B08
S1132AE0002B00D162B600BF02B0704784B0EFF390
S1132AF011830193019B039360230293029B83F34D
S1132B001188039B184604B0704784B00190019B60
S1132B100393039B83F3118800BF04B0704786B00E
S1132B20039002910192039B03F10473DA00029B68
S1132B3013449B000593059B019A1A6000BF06B0DD
S1132B40704784B001900091019B03F10473DA0093
S1132B50009B13449B000393039B1B68184604B01B
S1132B6070470000054B1B6803F04003002B01D1A4
S1132B70012300E000231846704700BF3C300E409C
S1132B8008B5FFF7EFFF034683F00103DBB2002B28
S1132B9008D100BF12210448FFF7D3FF0346002BDE
S1132BA0F8D100E000BF08BD04300E4008B5FFF7BF
S1132BB0E7FF044B5B681B0C03F00303DBB218460E
S1132BC008BD00BF00300E4082B00190024A019B54
S1132BD0D36200BF02B0704700300E40014B5B6A05
S1132BE01846704700300E40024B00225A6300BF63
S1132BF0704700BF00300E40024B4AF6E8525A6359
S1132C0000BF704700300E4082B003468DF8073095
S1132C109DF80730C3F10203102202FA03F31846A9
S1132C2002B0704700B585B001900B468DF80330B3
S1132C30FFF798FF034683F00103DBB2002B2AD190
S1132C40019B002B0FD1164BD3F800311B0A03F064
S1132C501F0301330293FDF745FD0246029B02FB6D
S1132C6003F3039301E0019B03930E4B1B78002BAA
S1132C700AD0039B0C4A934206D89DF803301946A8
S1132C80022000F013F807E09DF8033019460020F5
S1132C9000F00CF800E000BF05B05DF804FB00BFD5
S1132CA000400E40A0130020002D310110B586B065
S1132CB003460A468DF8073013468DF80630FFF7B1
S1132CC051FF034683F00103DBB2002B3FD1FFF732
S1132CD06DFF03461A469DF80730934239D01E4BC8
S1132CE0D3F800311B0A03F01F0301330593FDF7EA
S1132CF0F9FC0490049B059A02FB03F303939DF8EB
S1132D000730022B0CD1039B144A934204D940F29E
S1132D10DC511348FEF7BEFA02210498FEF75CFC6E
S1132D20104C9DF807301846FFF76EFF03462361E9
S1132D309DF80630002B01D0FFF722FF9DF80730E5
S1132D40002B07D100210498FEF746FC02E000BFE7
S1132D5000E000BF06B010BD00400E40002D310160
S1132D6074B3000000300E4084B001901D4B9B6989
S1132D700393039B23F03F030393019B1B78002BD6
S1132D8001D0042200E00022019B5B78002B01D0DB
S1132D90022300E000231343019A9278002A01D011
S1132DA0082200E000221343019AD278012A01D1BB
S1132DB0012200E000221343019A12791343039A7B
S1132DC013430393074A039B9361064B1B6823F445
S1132DD04032019B5B791B04024913430B6000BF23
S1132DE004B0704700300E400123184670470000BD
S1132DF000B583B00C4BDB6E0B4A43F08073D36693
S1132E0000210A48FFF79DFE0190019B002B03D08F
S1132E10042000F059FD02E0002000F055FD00BF41
S1132E2003B05DF804FB00BF00300E404C300E4090
S1132E3000B58BB001230993099B1B050893424BF2
S1132E40DB6C1B0A03F00F030793404B1B881A46E5
S1132E503E4B1B8828335B08134403F12801079B6E
S1132E605A1C13469B001344B1FBF3F3013B069336
S1132E70069B059307230493049A059B934228BF5A
S1132E8013460693069B1B060693069B23F0E063FA
S1132E90002B04D040F634012D48FEF7FBF9089BC3
S1132EA023F4E003002B04D040F635012848FEF754
S1132EB0F1F9254BDB6C23F0EE620699089B0B437A
S1132EC021491343CB64234BB3F90030002B36DB89
S1132ED0204BB3F90030ADF80E30BDF80E20BDF82C
S1132EE00E3028335B08134403F12802079B013397
S1132EF05900079B01335B080B44B2FBF3F30293C5
S1132F00029B019307230093009A019B934228BFDD
S1132F1013460293029B1B010293029B23F070034E
S1132F20002B04D040F64D010948FEF7B3F9064BD7
S1132F301B6D23F070020449029B13430B6500BF11
S1132F400BB05DF804FB00BF00300E409813002066
S1132F5074B300009C13002082B001900B46ADF8BE
S1132F600230019B9AB2044B1A80044ABDF8023025
S1132F70138000BF02B07047981300209C130020F8
S1132F8000B583B003468DF807309DF80730002B59
S1132F9002D0012B04D007E0084B094A9A6509E0E6
S1132FA0064B084A9A6505E040F679010648FEF7A3
S1132FB071F900BF00BF03B05DF804FB00300E40A0
S1132FC077402057372110B774B3000000B585B09F
S1132FD003468DF807300B468DF8063013468DF8FE
S1132FE00530344BD3F8803103939DF80630032B1E
S1132FF01CD801A252F823F009300000113000005F
S11330001B30000025300000039BDBB2039314E067
S1133010039B1B0ADBB203930FE0039B1B0CDBB285
S113302003930AE0039B1B0E039306E040F6BD01E5
S11330302148FEF72FF9002338E09DF80530002BD6
S113304016D1039B1B030393039B23F47043002BB0
S113305006D040F6C8011848FEF71CF9002325E005
S1133060164BDB6E23F470421449039B1343CB6667
S11330709DF80530012B18D1039B1B030393039B7D
S113308023F47043002B06D040F6D4010A48FEF71F
S113309001F900230AE0094BD3F8EC3023F4704221
S11330A00649039B1343C1F8EC300123184605B0CD
S11330B05DF804FBB081E00F74B3000000300E40F3
S11330C000B589B00390029111461A460B468DF85B
S11330D0073013468DF80630002307930023069328
S11330E09DF806301B029DF80720002A01D001221A
S11330F000E0002213430593059B40F20112934222
S11331002AD0B3F5817F07D2012B19D0012B47D3E5
S1133110B3F5807F50D073E040F20122934227D070
S113312040F20122934203D8B3F5007F50D067E008
S1133130B3F5407F58D040F20132934224D05FE08F
S1133140374BD3F874310793079B1B0ADBB2069302
S1133150079BDBB2079359E0314BD3F874310793E3
S1133160079B1B0E0693079B1B0CDBB207934DE0DA
S11331702B4BD3F878310793079B1B0ADBB20693DA
S1133180079BDBB2079341E0254BD3F878310793D3
S1133190079B1B0E0693079B1B0CDBB2079335E0C2
S11331A01F4BD3F86C310793079B1B0ADBB20693C2
S11331B0079BDBB2079329E0194BD3F86C310793D3
S11331C0079B1B0E0693079B1B0CDBB207931DE0AA
S11331D0134BD3F870310793079B1B0ADBB206939A
S11331E0079BDBB2079311E00D4BD3F870310793C3
S11331F0079B1B0E0693079B1B0CDBB2079305E092
S113320040F639110748FEF745F800BF039B079ABB
S11332101A60029B069A1A6000BF09B05DF804FBAD
S1133220B081E00F74B3000000B585B003468DF89B
S11332300730424B5B6B012B0CBF012300238DF83D
S11332400F30FFF7D9FC00BF3C4B9B6F03F0010329
S1133250002BF9D1394B1B6C03F003030293029B3F
S1133260002B04D001220D213548FFF758FC029BA6
S1133270DBB29DF807209A4209D19DF80730002B54
S113328058D100220D212E48FFF749FC52E0029B41
S1133290032B02D0029B002B22D19DF80730022B76
S11332A003D09DF80730012B1AD14FF40020FFF70B
S11332B08BFC00BF214B9B6F03F00103002BF9D162
S11332C01E4B1B6C23F003031C4A43F001031364DD
S11332D000BFFFF783FC034603F40023002BF8D060
S11332E000BF164B9B6F03F00103002BF9D1134B66
S11332F01B6C23F003029DF80730104913430B6441
S113330000BF0E4B9B6F03F00103002BF9D19DF816
S11333100730002B14BF01230023DBB21A460D2112
S11333200748FFF7FCFB9DF80F30002B03D0FFF795
S11333305BFC00E000BF05B05DF804FB00300E400C
S113334054300E4000B585B001906C4B02229A6354
S11333506A4B9B6B03F00F03022B06D040F6F61169
S11333606748FDF797FF0023C3E0FFF73DFD019B8E
S11333701B89C82B04D94FF420616148FDF78AFFEB
S1133380019B9A88019B1B899A4204D940F601212A
S11333905B48FDF77FFF019BB3F90C30C82B04DDBC
S11333A040F602215648FDF775FF019B5B78012B1F
S11333B009D1019B9B88C82B12D940F6062150489D
S11333C0FDF768FF0CE0019B5B78022B08D1019BA1
S11333D09B880A2B04D940F60B214948FDF75AFF74
S11333E0019BDB8842F21072934204D940F6132108
S11333F04348FDF74FFF019BDB884A2B02D800238B
S1133400039315E0019BDB88B3F5FA7F03D24FF0F9
S1133410805303930CE0019BDB8840F6C312934274
S113342003D84FF00053039302E04FF0405303934B
S1133430324BDB6C23F0405323F00103019AB2F9C1
S11334400C20002A01DB012100E00021039A0A4339
S11334502A491343CB64294BD3F8EC30274A43F46D
S11334604073C2F8EC30019B9A88264B1A80FFF710
S1133470BFFC019B1B891A46019BB3F90C3019460A
S11334801046FFF769FD019B9B88184600F0AAF9D6
S1133490019B9B7B1846FFF773FD019B5B88012210
S11334A00121184600F032F8034683F00103DBB231
S11334B0002B06D040F64A211148FDF7EBFE00230D
S11334C017E00E4BDB6B0D4A43F48063D363019B1F
S11334D05B781846FFF7A8FE019B9B7A202B01D14D
S11334E0012300E000231A4605210748FFF717FBD4
S11334F00123184605B05DF804FB00BF00300E4000
S113350074B300009A1300203C300E4010B594B000
S113351001900B468DF8033013468DF802300023DA
S113352013930023119309AB00221A605A609A6026
S113353006AB00221A605A609A6003AB00221A603C
S11335405A609A6002AB00210A461A800A469A70B1
S1133550019BB3F5E16F06D3019B40F6B832934269
S113356001D8012300E000238DF843309DF8433057
S113357003F001038DF843309DF8433083F00103D9
S1133580DBB2002B06D040F699219348FDF782FE6A
S113359000231DE1019BB3F5E16F8CBF01230023E0
S11335A08DF842309DF84230002B0AD04FF4E1638D
S11335B0139340F6B8331193119A139BD31A1293B1
S11335C009E04FF4966313934FF4E1631193119A56
S11335D0139BD31A12939DF84230002B0BD07F4BD0
S11335E0D3F868310893089B1B0E0593089B1B0CAA
S11335F0DBB208930AE0794BD3F868310893089B4F
S11336001B0ADBB20593089BDBB20893744BDB6C9B
S11336101B0FDBB203F00303DBB28DF808309DF817
S113362008309DF8422003A906A8FFF749FD6C4B1A
S1133630D3F8EC301B0ADBB203F00303DBB28DF8E2
S113364009309DF809409DF8422003AB191D06ABD3
S1133650181D2346FFF734FD019A139BD31A0599CD
S1133660089A8A1A02FB03F2129BB2FBF3F30B9340
S11336700B9A089B13440B93019A139BD31A039937
S1133680069A8A1A02FB03F2129BB2FBF3F3099324
S1133690099A069B13440993019A139BD31A04991C
S11336A0079A8A1A02FB03F2129BB2FBF3F30A9302
S11336B00A9A079B13440A930B9A059B9A4213D8C0
S11336C00B9A089B9A420FD30A9A049B9A420BD8EE
S11336D00A9A079B9A4207D3099A039B9A4203D8F2
S11336E0099A069B9A4206D240F6E7213A48FDF72A
S11336F0D1FD00236CE09DF80230002B12D0384B32
S1133700DB6D23F4FE4323F002030B9A12021343EE
S11337109DF84220002A01D0022200E00022304914
S11337201343CB659DF80330002B50D09DF808104F
S11337309DF8423000221846FFF748FC034683F008
S11337400103DBB2002B06D040F6F6212248FDF738
S1133750A1FD00233CE09DF809109DF842300122B0
S11337601846FFF733FC034683F00103DBB2002B5A
S113377006D040F6FE211848FDF78CFD002327E013
S1133780099B0F930A9B0E930E9A0F9B934238BF8B
S113379013460993099B0D93E7230C930C9A0D9BF5
S11337A0934228BF134609930D4B5B6E23F4FF73BA
S11337B023F00103099A520013439DF84220002A82
S11337C001D0012200E00022054913434B66012386
S11337D0184614B010BD00BF74B30000B081E00FF0
S11337E000300E4000B585B0019000230393344BA4
S11337F01B6F03F007030293314BDB6C03F00103EF
S1133800002B14D0029B012B11D9019B132B02D83E
S1133810042303933DE0019B132B05D9019B272B24
S113382002D80823039334E01023039331E0244B9C
S1133830DB6C03F00103002B14D1029B012B11D884
S1133840019B092B02D80423039322E0019B092B3B
S113385005D9019B132B02D80823039319E01023E5
S1133860039316E0164BDB6C03F00103002B0BD023
S1133870029B012B08D8019B272B02D80823039312
S113388007E01023039304E040F63C310D48FDF7B4
S113389001FD039B013B0393039B1A02039B1B0340
S11338A013430393064BDB6C23F47F420449039BCD
S11338B01343CB64FFF7BCFA00BF05B05DF804FB0B
S11338C000300E4074B3000000B585B003468DF897
S11338D0073000211248FFF734F90390039B002BB3
S11338E003D19DF80730012B07D9039B002B04D18A
S11338F040F65B310B48FDF7CDFC0B4B1B6F23F0FF
S113390007029DF80730084913430B67074B1B88D0
S11339101846FFF767FF00BF05B05DF804FB00BF62
S11339204C300E4074B3000000300E409A13002057
S113393086B0039002910192039B03F10473DA00B1
S1133940029B13449B000593059B019A1A6000BFD8
S113395006B0704784B001900091019B03F1C063ED
S11339600393039B009A1A6000BF04B0704784B0AD
S113397001900091019B03F180630393039B009AE0
S11339801A6000BF04B0704700B587B0039002917D
S11339900192FFF797F80590039B1A68029BDB439B
S11339A01A400199029B0B401A43039B1A60059825
S11339B0FFF793F800BF07B05DF804FB82B00190F5
S11339C0034A019BC2F8243400BF02B0704700BF11
S11339D000A0004000B583B0034600918DF8073085
S11339E09DF80730002B42D09DF80730012B3BD0C7
S11339F09DF80730022B34D09DF80730032B2DD0CF
S1133A009DF80730042B27D09DF80730052B20D0D4
S1133A109DF80730062B1AD09DF80730072B14D0D9
S1133A209DF80730082B0ED09DF80730092B07D0DE
S1133A309DF807300A2B01D107231AE0002318E070
S1133A404FF4404315E00F2313E0002311E000235B
S1133A500FE04FF6FF730CE000230AE04FF47F43BE
S1133A6007E040F6FF7304E04FF6C07301E040F254
S1133A70FF33009A134103F00103002B04D140F2F9
S1133A80E1310D48FDF706FC9DF8072013465B0065
S1133A9013441B010C3303F1804303F5204301213C
S1133AA0009A01FA02F211461846FFF760FF00BFC0
S1133AB003B05DF804FB00BFD8B3000000B583B0C9
S1133AC0034600918DF807309DF80730002B42D053
S1133AD09DF80730012B3BD09DF80730022B34D0E2
S1133AE09DF80730032B2DD09DF80730042B27D0E9
S1133AF09DF80730052B20D09DF80730062B1AD0EF
S1133B009DF80730072B14D09DF80730082B0ED0F2
S1133B109DF80730092B07D09DF807300A2B01D1F7
S1133B2007231AE0002318E04FF4404315E00F2365
S1133B3013E0002311E000230FE04FF6FF730CE0C5
S1133B4000230AE04FF47F4307E040F6FF7304E0EC
S1133B504FF6C07301E040F2FF33009A134103F0C3
S1133B600103002B04D14FF482610D48FDF792FB51
S1133B709DF8072013465B0013441B010C3303F12B
S1133B80804303F520430121009A01FA02F2114611
S1133B901846FFF7DFFE00BF03B05DF804FB00BF6B
S1133BA0D8B3000000B583B0034600918DF8073008
S1133BB09DF80730002B27D09DF80730012B23D028
S1133BC09DF80730022B1FD09DF80730032B1BD024
S1133BD09DF80730042B1CD09DF80730052B13D01B
S1133BE09DF80730062B14D09DF80730072B10D012
S1133BF09DF80730082B07D09DF80730092B03D018
S1133C009DF807300A2B04D1009B23F00113002BED
S1133C1003D07D210B48FDF73DFB9DF8072013469B
S1133C205B0013441B0103F1804303F52043009A16
S1133C304FF001111846FFF7A7FE00BF03B05DF86F
S1133C4004FB00BF3CB4000000B587B002910192B0
S1133C501A4603468DF80F3013468DF80E300023B4
S1133C6005939DF80F30002B42D09DF80F30012BA7
S1133C703BD09DF80F30022B34D09DF80F30032B2E
S1133C802DD09DF80F30042B27D09DF80F30052B35
S1133C9020D09DF80F30062B1AD09DF80F30072B3B
S1133CA014D09DF80F30082B0ED09DF80F30092B3F
S1133CB007D09DF80F300A2B01D107231AE0002307
S1133CC018E04FF4404315E00F2313E0002311E004
S1133CD000230FE04FF6FF730CE000230AE04FF4DB
S1133CE07F4307E040F6FF7304E04FF6C07301E042
S1133CF040F2FF33029A134103F00103002B03D176
S1133D00BF213B48FDF7C6FA019A029B534023F0BA
S1133D100303002B03D0C1213548FDF7BBFA019BF7
S1133D20072B0FD8019B9B000F2202FA03F19DF889
S1133D300F20019B9B0002FA03F31A462D48FFF75C
S1133D4023FE11E0019B083B0593059B9B000F227A
S1133D5002FA03F19DF80F20059B9B0002FA03F37E
S1133D601A462548FFF710FE019B072B10D8019B2C
S1133D709B00032202FA03F1029B03F00302019B5E
S1133D809B0002FA03F31A461C48FFF7FDFD0FE0FF
S1133D90059B9B00032202FA03F1029B03F003023A
S1133DA0059B9B0002FA03F31A461548FFF7ECFD46
S1133DB09DF80E301A4601991248FFF7B9FD9DF897
S1133DC020301A4601991048FFF7B2FD0122019BE9
S1133DD002FA03F31846FFF7F1FD9DF824301A4662
S1133DE001990A48FFF7A4FD00BF07B05DF804FB82
S1133DF03CB4000000A4004004A4004008A4004017
S1133E000CA4004010A4004014A4004028A40040C6
S1133E1000B585B00291019303468DF80F30134627
S1133E208DF80E309DF80F30002B42D09DF80F30E6
S1133E30012B3BD09DF80F30022B34D09DF80F306E
S1133E40032B2DD09DF80F30042B27D09DF80F3075
S1133E50052B20D09DF80F30062B1AD09DF80F307B
S1133E60072B14D09DF80F30082B0ED09DF80F307F
S1133E70092B07D09DF80F300A2B01D107231AE034
S1133E80002318E04FF4404315E00F2313E0002310
S1133E9011E000230FE04FF6FF730CE000230AE06B
S1133EA04FF47F4307E040F6FF7304E04FF6C0731E
S1133EB001E040F2FF33029A134103F00103002BA7
S1133EC004D140F21D113F48FDF7E4F99DF80E308E
S1133ED0002B0FD0019B002B06D09DF80F300299C8
S1133EE01846FFF7EBFD05E09DF80F3002991846E0
S1133EF0FFF770FD029B072B23D833499DF80F2051
S1133F0013465B0013441B010B4404331A68029BE1
S1133F109B000F2101FA03F3DB4313409DF80E10BD
S1133F20029A920001FA02F2114627489DF80F20E6
S1133F30194313465B0013441B0103440433196003
S1133F4028E021499DF80F2013465B0013441B0110
S1133F500B4408331A68029B03F18043083B9B001F
S1133F600F2101FA03F3DB4302EA03019DF80E205B
S1133F70029B03F18043083B9B0002FA03F31248BF
S1133F809DF80F20194313465B0013441B0103449F
S1133F90083319609DF80E30002B0FD1019B002BC4
S1133FA006D09DF80F3002991846FFF787FD05E00B
S1133FB09DF80F3002991846FFF70CFD00BF05B0BD
S1133FC05DF804FB3CB4000000A0004082B0019006
S1133FD00091019B009ADA6300BF02B0704786B07B
S1133FE0039002910192039B03F10473DA00029B94
S1133FF013449B000593059B019A1A6000BF06B009
S1134000704700B587B0039002910192FEF75AFD04
S11340100590039B1A68029BDB431A400199029B9B
S11340200B401A43039B1A600598FEF756FD00BF28
S113403007B05DF804FB000000B589B0039002915D
S113404001928DF80330019B002B04D140F20F1133
S11340505748FDF71FF9019B002B00F0A4809DF841
S1134060033003F003038DF80330039B1B6823F430
S11340704072039B1A6003989DF803301B021A4692
S11340804FF44071FFF7BDFF029B002B16D1039B39
S1134090484A934204D14848FDF70EFC02900DE0D3
S11340A0039B464A934204D14548FDF705FC029020
S11340B004E040F229113E48FDF7ECF84FF0FF33DD
S11340C00793039B1B6803F00203002B11D09DF898
S11340D00330012B07D0022B08D0002B00D01AE0AC
S11340E0384B079317E0384B079314E0374B07938B
S11340F011E09DF80330012B07D0022B08D0002BD0
S113410000D008E02F4B079305E0314B079302E002
S1134110304B079300BF029A079B9A4204D84FF48E
S1134120AF712348FDF7B6F89DF803302A4AD35CF3
S11341300593059B019A02FB03F30493049B002B54
S113414005D140F26F111A48FDF7A4F82CE0019B49
S1134150DB00029AD21A049B13445A1E049BB2FB3E
S1134160F3F3013B0693069B002B04DA40F275112E
S11341700F48FDF78FF8069BB3F5007F04D34FF487
S1134180BB710B48FDF786F8039B1B6803F0020321
S1134190002B04D0069B002B01D101230693069A21
S11341A0039B1A6100E000BF09B05DF804FB00BF87
S11341B0A4B4000000C000400082040000C4004019
S11341C00092040080841E00404B4C00809FD50068
S11341D040548900002D3101A0B4000000B583B023
S11341E001900B468DF80330019B0B4A934208D093
S11341F0019B0A4A934204D040F28F110848FDF70C
S113420049F8019B9DF8032000211846FFF7E7FEBB
S113421000BF03B05DF804FB00C0004000C40040D0
S1134220A4B4000000B583B001900091019B184A2A
S1134230934208D0019B174A934204D04FF4D271A1
S11342401548FDF727F8019B00221A6413490198C9
S1134250FFF7BCFE0198009B5B7883F00103DBB29F
S11342601A460121FFF7BBFE009B5968009B9A6820
S1134270009B1B7B0198FFF7DFFE009B1B78194610
S11342800198FFF7ABFF00BF03B05DF804FB00BF6C
S113429000C0004000C40040A4B40000FFFF0700B9
S11342A082B003468DF807309DF90730002B0CDBF4
S11342B09DF8073003F01F0205499DF907305B099B
S11342C0012000FA02F241F8232000BF02B0704737
S11342D000E100E082B003468DF807309DF9073015
S11342E0002B0DDB9DF8073003F01F0206499DF9F2
S11342F007305B09012000FA02F2603341F8232001
S113430000BF02B0704700BF00E100E082B0034686
S113431000918DF807309DF90730002B0ADB009BD4
S1134320DAB20C499DF907305201D2B20B4483F83A
S113433000230BE0009BDAB207499DF8073003F035
S11343400F03043B5201D2B20B441A7600BF02B0F1
S1134350704700BF00E100E000ED00E084B0019090
S11343600091019B03F180630393039B009A1A60FD
S113437000BF04B07047000000B585B00190019BF8
S1134380002B03D18F213148FCF784FF019B1B785C
S11343901B0623F0E063002B03D091212B48FCF78C
S11343A079FF019B5B781B0223F47F43002B03D02E
S11343B095212648FCF76EFF019B9B7823F0FF03B1
S11343C0002B03D097212148FCF764FF019BDB7885
S11343D0072B03D9A1211D48FCF75CFF01214FF4F1
S11343E0AA40FDF7FBF9019B1B781B060393019B75
S11343F05B781B02019A927813431A46039B13437A
S11344000393134A039B1360114B00221A62104B4F
S11344100022DA620E4B00225A630D4B4FF0004229
S1134420DA660B4B4FF0FF329A660920FFF752FF12
S1134430019BDB7819460920FFF768FF0920FFF785
S11344402FFF00BF05B05DF804FB00BF08B50000F6
S113445000200E4000B589B0039002910192039BA5
S1134460DBB21A46012393400693039B072B03DD1B
S1134470E9218548FCF70EFF029B002B03D1EA21BA
S11344808148FCF707FF029B1B6823F47C1323F08D
S11344900F03002B03D0EF217B48FCF7FBFE029BAC
S11344A01B791B0223F47F43002B03D0FD217648A4
S11344B0FCF7F0FE029B5B791B0223F47F43002B85
S11344C003D0FF217048FCF7E5FE029B9B7923F0A3
S11344D0FF03002B04D040F201116B48FCF7DAFE15
S11344E0029BDB7923F0FF03002B04D040F203117D
S11344F06548FCF7CFFE029B9B7A1B0423F44033F0
S1134500002B04D040F207115F48FCF7C3FE029B66
S1134510DB7A1B0523F48013002B04D040F209112D
S11345205948FCF7B7FE029B1B7B5B0523F4001381
S1134530002B04D040F20B115348FCF7ABFE029B56
S11345405B7B23F0FF03002B04D040F20D114E4897
S1134550FCF7A0FE4D48029B1968039A13465B00C2
S113456013441B01034480331960029B5B7B47495E
S11345701846039A13465B0013441B010B4488330B
S11345801860029B9B7A1A04029BDB7A1B051A4370
S1134590029B1B7B5B0513433C491846039A134655
S11345A05B0013441B010B4484331860019B3748A0
S11345B023F00301039A13465B0013441B010344D5
S11345C098331960314A069B9366FEF78FFA05907B
S11345D02E4BDA6E2D49069B1343CB66029B1B7A46
S11345E0002B05D0294B5A6B2849069B13434B6378
S11345F0029B5B7A002B05D0244BDA6A2349069B85
S11346001343CB62214B1B680793029B1B79002B3E
S113461008D0029B1B79DB431B0263F47F43079A98
S113462013400793029B5B79002B06D0029B5B79B6
S11346301B021A46079B13430793029B9B79002B8B
S113464007D0029B9B79DB4363F0FF03079A134077
S11346500793029BDB79002B05D0029BDB791A467A
S1134660079B13430793094A079B1360069908485D
S1134670FFF774FE054A069BD3630598FEF745FAD7
S113468000BF09B05DF804FB08B5000000200E402F
S113469028200E4082B00190009100BF019B5A6B0C
S11346A0009B1340002BF9D100BF02B070470000FB
S11346B000B583B001900B468DF80330019B0D4A81
S11346C0934204D040F20D110B48FCF7E3FD0221A4
S11346D00198FFF7DFFF9DF80330002B03D0019B07
S11346E001225A6002E0019B02225A6000BF03B01B
S11346F05DF804FB006004406CB5000000B585B0B3
S11347000190009100230393019B3E4A934204D0FD
S11347104FF4B5713C48FCF7BDFD009B1B7883F05A
S11347200103DBB2002B0CD0019B9B6803F0010357
S1134730002B06D002210198FFF7ACFF019B022257
S11347405A60009B5B78002B03D0039B43F4805397
S11347500393009B9B78002B03D1009BDB68002B09
S11347600BD0039B43F400730393009BDB68002B83
S113477003D0009BDA68019B1A61009BDB78002B55
S113478003D0039B43F480730393009B1B79002B9A
S113479003D0039B43F040030393009B5B79002BFE
S11347A003D0039B43F080030393009B9B799B00FE
S11347B01A46039B13430393009BDB791B011A46A0
S11347C0039B13430393009B1B7A1A46039B1343D7
S11347D00393019B039A1A60009B1B78002B0CD057
S11347E0019B9B6803F00103002B06D10221019871
S11347F0FFF750FF019B01225A6000BF05B05DF82E
S113480004FB00BF006004406CB5000082B001905E
S1134810019B0C4A93420BD0019B0B4A934207D055
S1134820019B0A4A934203D0019B094A934201D156
S1134830012300E0002303F00103DBB2184602B0B9
S1134840704700BF008001400084014000A0014087
S113485000A4014000B585B0019000910198FFF7D4
S1134860D5FF0346002B03D19A213748FCF712FDEC
S113487000230393009B1B7883F00103DBB2002B1E
S113488002D0019B02225A60019B00225A62009BC3
S11348909B781A06009BDB781B041A43009B9B79C8
S11348A09B021A43009BDB791B021343009A127A82
S11348B01343009A5278002A01D0402200E00022DB
S11348C01343009A527A002A01D0802200E0002289
S11348D01343009A927A002A01D0202200E0002299
S11348E01343009AD27A002A01D0102200E0002259
S11348F01343009A127B002A01D0082200E0002210
S113490013430393009B1B79002B02D04FF40052F6
S113491000E00022009B5B79002B02D04FF0805313
S113492000E000231343039A13430393019B039A68
S11349301A60009B1B78002B02D0019B01225A6055
S113494000BF05B05DF804FB3CB6000082B00190E6
S11349500B468DF803309DF8033063F07F03DBB220
S11349601A46019B9A6500BF02B0704700B587B034
S1134970039002910192019B002B04D140F2862105
S11349801248FCF787FC029B002B03D11048FCF76C
S113499093FF0290029B5A1E019B5B00B2FBF3F350
S11349A00593059B1B020593059A0A4B1340002BA4
S11349B004D040F2A3210548FCF76CFC039B059A44
S11349C05A6100BF07B05DF804FB00BFA4B6000045
S11349D040410500070080FF00B585B001900B46FB
S11349E08DF80330019B144A934210D0019B134A63
S11349F093420CD0019B124A934208D0019B114A66
S1134A00934204D040F2BE210F48FCF743FC9DF8CA
S1134A100330DB430393039B03F005030393039BDE
S1134A205A00019BDA609DF80320019BDA6000BF05
S1134A3005B05DF804FB00BF000001400004014024
S1134A4000080140000C0140A4B6000000B583B08A
S1134A5001900091019B3B4A934210D0019B3A4A3A
S1134A6093420CD0019B394A934208D0019B384AA7
S1134A70934204D040F256313648FCF70BFC0198BF
S1134A8000F06AF8019B1A68009B1B8A43F001033B
S1134A909BB21946009B9B7B002B02D04FF4806392
S1134AA000E000230B431A43019B1A60019B1B681F
S1134AB0009A127D002A02D04FF0005200E000223A
S1134AC01A43019B1A60009B9B7C002B05D0009B22
S1134AD0DB7C19460198FFF739FF009B1B7B43F4ED
S1134AE08052019B5A60009B5968009B9B681A4640
S1134AF00198FFF73BFF009B5B7B002B02D0019BDF
S1134B001022DA60009B5B7D002B05D0019B1B68A3
S1134B1043F48032019B1A60009B9B7D1B0703F0CA
S1134B20E042009BDB7D1B0503F4E0031A43019B79
S1134B301A66009B1B781A46019BDA6000BF03B01B
S1134B405DF804FB0000014000040140000801403E
S1134B50000C0140A4B6000000B583B00190019B95
S1134B602D4A934210D0019B2C4A93420CD0019BB6
S1134B702B4A934208D0019B2A4A934204D040F224
S1134B802B412948FCF786FB019B40F6AA62DA60B8
S1134B90019B00221A60019B41F205025A60019BAD
S1134BA000229A60019B00225A61019B0022DA6470
S1134BB0019B1E4A9A64019B00221A66019B0022F3
S1134BC05A67019B00229A67019B0022DA67019BC6
S1134BD0114A93420BD0019B104A934207D0019B88
S1134BE00F4A934203D0019B0E4A934202D1019B88
S1134BF000221A65019B00229A65019B074A934291
S1134C0003D0019B074A934202D1019B0022DA653B
S1134C1000BF03B05DF804FB000001400004014044
S1134C2000080140000C0140A4B60000F9FF010097
S1134C3082B001900B468DF8033000BF019B1B69C5
S1134C4003F04003002BF9D09DF80320019B5A6325
S1134C5000BF019B1B6903F02003002BF9D0019BCB
S1134C60DB69DBB2184602B07047000010B584B0AF
S1134C70064B6C460FCB84E80F006B461846FEF7D4
S1134C8061FB0023184604B010BD00BF0CB7000040
S1134C9000B583B06B4600221A609A8000238DF819
S1134CA0003000238DF8013000238DF802300023FA
S1134CB08DF8033000238DF8043002238DF805307D
S1134CC06B461846FEF750F80023184603B05DF80B
S1134CD004FB000030B587B01F4B6C461D460FCD5A
S1134CE00FC42B68238000238DF810304FF0FF335E
S1134CF005931A4B5B6803F40023002B04D1174B74
S1134D009B68C3F308030593059BB3F1FF3F08D1E8
S1134D10134B1B884FF6FF72934202D0104B1B8833
S1134D200593059BB3F1FF3F02D14FF4A67305939E
S1134D30059BB3F1FF3F03D0059B9BB2ADF8063052
S1134D400848FBF713FD6B461846FDF789FB002363
S1134D50184607B030BD00BF1CB70000B081E00F9B
S1134D600001E00F00F0490200B583B00A4B1B6854
S1134D70019300238DF8073020238DF8043001AB14
S1134D801846FDF7EDFB6420FDF724FC00231846CC
S1134D9003B05DF804FB00BF30B7000082B00346E7
S1134DA000918DF807309DF90730002B0ADB009B3A
S1134DB0DAB20C499DF907305201D2B20B4483F8A0
S1134DC000230BE0009BDAB207499DF8073003F09B
S1134DD00F03043B5201D2B20B441A7600BF02B057
S1134DE0704700BF00E100E000ED00E000B583B0D3
S1134DF0FB238DF807300CE09DF907300521184698
S1134E00FFF7CCFF9DF90730DBB20133DBB28DF83D
S1134E1007309DF90730322BEEDD0023184603B02E
S1134E205DF804FB08B5FBF73FFAFBF752FAFBF712
S1134E3052FAFBF752FAFBF752FA00BF08BD08B565
S1134E40FBF74FFAFBF74FFAFBF74FFAFBF74FFA72
S1134E5000BF08BD00B587B00190FBF71FFC0246F8
S1134E600F4BA3FB02239B0905930E4A059BB2FB40
S1134E70F3F30493019B4FF47A7202FB03F2049B55
S1134E80B2FBF3F30393039B9B080293029B002B57
S1134E9002D0029800F00CF800BF07B05DF804FBE4
S1134EA0D34D621040420F000000000000000000DB
S1134EB0013800D0FCE7704708B5FFF7B3FF00F0F6
S1134EC07CFAFFF7BCFF02F00FFD0346184600F022
S1134ED08CFAF6E782B00190019B0C4A93420BD006
S1134EE0019B0B4A934207D0019B0A4A934203D089
S1134EF0019B094A934201D1012300E0002303F0FE
S1134F000103DBB2184602B0704700BF00800140C5
S1134F100084014000A0014000A4014000B583B01A
S1134F2001900B468DF803300198FFF7D3FF034639
S1134F30002B04D14FF451710848FCF7ABF99DF8EC
S1134F400330002B03D0019B01225A6002E0019B35
S1134F5002225A6000BF03B05DF804FB34B70000BE
S1134F6000B58FB00190304B1B680D932E4B9B699D
S1134F700C932D4BDB690B932B4B1B6E0A932A4B23
S1134F805B6E09932948FCF797FC0890089B284A14
S1134F90A2FB03239B09019A02FB03F39B0A0793D9
S1134FA003AB00221A605A609A601A7301238DF8C9
S1134FB00C3001238DF8173000238DF80C300123B9
S1134FC08DF814300A238DF80E3000238DF80D303F
S1134FD003AB19461448FFF73DFC134A079B536281
S1134FE001211148FFF79AFF00BF0F4B5B6A002BAA
S1134FF0FBD100210C48FFF791FF0B4A0D9B136076
S1135000094A0C9B9361084A0B9BD361064A0A9B8D
S11350101366054A099B536601210348FFF77EFF87
S113502000BF0FB05DF804FB008001404041050063
S1135030D34D621000B58FB001900B468DF803304C
S11350405020FFF78DFF01238DF83430052308939A
S1135050022307934FF488530B9304230A930223E8
S1135060099311230C939DF803308DF80C30084BF1
S113507004930023059301238DF8183002AB1946DD
S1135080019801F067F800BF0FB05DF804FB00BFA2
S1135090DDFB050000B587B00590049113468DF83B
S11350A00F300A4B9B6803F0E003002B0AD19DF8F4
S11350B00F300193049B0093044B054A059940204B
S11350C001F0FEF800BF07B05DF804FB00C4004027
S11350D0A413002010B582B0134B1B68184603F0CC
S11350E0F3F94FF00002114B03F068FA03460C4643
S11350F0184621464FF000020D4B03F089FB03468E
S11351000C46184621464FF000020A4B03F09EF865
S113511003460C461846214603F00AFD0346019354
S1135120019B184602B010BDA413002000405F404C
S11351300000F0400000184010B582B0204B1B68FE
S1135140184603F0C1F91AA3D3E9002303F036FA91
S113515003460C46184621464FF00002194B03F053
S113516057FB03460C461846214613A3D3E90023F4
S113517003F06CF803460C461846214603F0D8FCAD
S113518003460193DDED017AB2EE027A27EE877AC7
S1135190F1EE046AC7EE267A9FED0B7A77EE877AF2
S11351A0CDED017A019B184602B010BDAFF300802B
S11351B0D7A3703D0AF76540CDCCCCCCCC6C47402E
S11351C0A41300200000F0400000004282B0034617
S11351D08DF807309DF90730002B0CDB9DF8073064
S11351E003F01F0205499DF907305B09012000FA0D
S11351F002F241F8232000BF02B0704700E100E052
S113520000B589B00190009100238DF8143000237B
S11352108DF815301F238DF8163000238DF81730C4
S113522000238DF8183000238DF81930019B2E4A85
S1135230934203D036212D48FCF72CF8022002F0CB
S113524075FB01212A48FCF7C9FA009B1B788DF8ED
S11352501430009B5B788DF815302648FBF7F2FF7D
S113526003468DF81630009B5B6822491846FBF70D
S1135270B3FF03468DF81730009B1B7A8DF8183066
S1135280009B5B7A8DF8193005AB19460198FBF742
S113529047FE02AB00221A605A609A60FF238DF821
S11352A00D3003238DF80A30009B9B7A8DF80C3067
S11352B0009BDB7A8DF81330009B1B7B8DF8093043
S11352C002AB19460198FBF7CDFE01230793019B1E
S11352D0079A5A640F20FFF779FF022002F04AFB75
S11352E000BF09B05DF804FB002000409CB700003B
S11352F000D2040080D5430200B583B0019002209F
S113530002F014FB019B01229A6000BF03B05DF818
S113531004FB0000014B1B6818467047A8130020CB
S113532000B583B00C4B9A6B0B4B5B6C1340019331
S1135330094A019B1364019B03F00103002B03D072
S1135340054B9B6C054A1360022002F013FB00BF5F
S113535003B05DF804FB00BF00200040A813002048
S113536008B5042002F0AAFA4FF0FF3204490548B8
S113537002F01EFC0121044801F050F900BF08BDF1
S113538000AB870400A001400060044008B5082079
S113539002F094FA00F044F900BF08BD08B501F02A
S11353A09DFA01222021F320FFF774FE00BF08BDFF
S11353B008B501F09DFA00BF08BD08B5032002F04E
S11353C0B5FA00F097F90221012000F071FC02F017
S11353D091FA02F04BFA082000F0C8F801F01AFE26
S11353E0042002F055FA00BF08BD00B583B0019057
S11353F0019B03F00403002B01D0FFF7B1FF019BD5
S113540003F00803002B01D0FFF7C0FF019B03F05A
S11354101003002B01D0FFF7C1FF019B03F0200311
S1135420002B01D0FFF7C4FF00BF03B05DF804FBFD
S113543000B583B0114BD3F81C24104BD3F8283497
S1135440134001930D4A019BC2F82434019B03F4D9
S11354508043002B02D0012002F062F9019B03F08B
S11354602003002B06D0064802F06EFB0090009843
S113547001F022FE00BF03B05DF804FB00A0004071
S113548000A0014000B583B00B4BD3F81C240A4B99
S1135490D3F8283413400193074A019BC2F82434FB
S11354A0019B03F40043002B02D0002002F038F9E2
S11354B000BF03B05DF804FB00A0004000B583B05A
S11354C0134BDA68124B9B6913400193104A019BFA
S11354D05361019B03F00103002B0DD001F05AFE30
S11354E00346012B01D101F05BFE01F053FE03469C
S11354F0022B01D101F086FE019B03F01003002B67
S113550001D001F0B3FE00BF03B05DF804FB00BF9F
S113551000A4014000B583B0124BDA68114B9B69BB
S1135520134001930F4A019B5361019B03F0010354
S1135530002B13D002F074F80B4B1B78002B14BF14
S113554001230023DBB283F00103DBB203F0010388
S1135550DAB2054B1A70034802F0F6FA00BF03B042
S11355605DF804FB00A00140AC13002000B593B02B
S11355700190264A019B136000238DF841300223D9
S11355808DF8383000238DF84030214B0F930023E1
S11355908DF8393055238DF8423001238DF843308E
S11355A004238DF844300EAB19461A48FFF728FE41
S11355B04FF0804307930023099300238DF8203094
S11355C000230B9300238DF8283000238DF8083036
S11355D000238DF8093000238DF8143000238DF852
S11355E0153000230393002304930B4B0693019B74
S11355F00D9301238DF8303002AB1946074800F0B3
S113560043FF00BF13B05DF804FB00BFB4130020D8
S1135610D4430200002000400000A0400060044089
S113562000B583B01048FFF767FEFFF773FE0190E3
S1135630019802F049FF0AA3D3E9002303F030FAEA
S11356400346002B05D0094B1B680133074A13603E
S113565002E0064B00221A6000BF03B05DF804FBB1
S11356609A9999999979A44000200040B013002098
S1135670044B1B68052B01D9012300E000231846C5
S1135680704700BFB013002008B5FFF743FE07EED4
S1135690900AF8EE677A9FED067A67EE877A9FEDB7
S11356A0057AC7EE876A16EE903A184608BD00BF21
S11356B00000C84200F07F4500B583B00B4B1A6A66
S11356C00A4BDB6A13400193084A019B9362019BD6
S11356D003F00403002B04D0054B1B68184602F0AA
S11356E0D7F800BF03B05DF804FB00BF00600440BE
S11356F0B413002008B501211548FCF76FF8002207
S113570000210120FCF774FF012201210020FCF795
S11357106FFF02210F48FCF7CDFB0A210E48FCF76E
S1135720C9FB01210D48FCF759F80D48FCF7DCFDD5
S1135730012201210320FCF75BFF01220121022049
S1135740FCF756FF04211120FCF7B4FB00BF08BD91
S1135750404105000300200002001E0030253E00E9
S113576080D5430200B583B003468DF807309DF819
S113577007307E2B00F2CB8101A252F823F000BF48
S11357800B5B00000F5B00000F5B00000F5B000071
S11357900F5B00000F5B00000F5B00000F5B00005D
S11357A00F5B00000F5B00000F5B00000F5B00004D
S11357B00F5B00000F5B00000F5B00000F5B00003D
S11357C00F5B00000F5B00000F5B00000F5B00002D
S11357D00F5B00000F5B00000F5B00000F5B00001D
S11357E00F5B00000F5B00000F5B00000F5B00000D
S11357F00F5B00000F5B00000F5B00000F5B0000FD
S11358007D59000081590000875900008B59000020
S11358108F59000093590000975900009B590000CC
S1135820A1590000A5590000A9590000AD59000074
S1135830B1590000B7590000BB590000C15900001C
S1135840C5590000C9590000CD590000D1590000C4
S1135850D5590000D9590000DD590000E159000074
S1135860E5590000E9590000ED590000F359000022
S1135870F7590000FB590000FF590000035A0000CB
S1135880075A00000B5A00000F5A0000135A000078
S1135890175A00001B5A00001F5A0000235A000028
S11358A0275A00002B5A00002F5A0000335A0000D8
S11358B0375A00003B5A00003F5A0000435A000088
S11358C0475A00004B5A00004F5A0000535A000038
S11358D0575A00005B5A00005F5A0000635A0000E8
S11358E0675A00006B5A00006F5A0000735A000098
S11358F0775A00007B5A00007F5A0000835A000048
S1135900875A00008D5A0000915A0000955A0000F1
S1135910995A00009D5A0000A15A0000A55A00009F
S1135920A95A0000AD5A0000B35A0000B75A00004B
S1135930BB5A0000C15A0000C55A0000C95A0000F1
S1135940CD5A0000D15A0000D55A0000D95A00009F
S1135950DD5A0000E15A0000E55A0000E95A00004F
S1135960ED5A0000F15A0000F55A0000F95A0000FF
S1135970FD5A0000035B0000075B00000023CCE03D
S11359804FF47433C9E0674BC7E0674BC5E0674B1E
S1135990C3E0674BC1E0674BBFE04FF44033BCE06A
S11359A0654BBAE0654BB8E0654BB6E0654BB4E0D7
S11359B04FF40153B1E0644BAFE04FF48053ACE0DB
S11359C0624BAAE0624BA8E0624BA6E0624BA4E003
S11359D0624BA2E0624BA0E0624B9EE0624B9CE013
S11359E0624B9AE0624B98E0624B96E04FF490333E
S11359F093E0614B91E0614B8FE0614B8DE0614B33
S1135A008BE0614B89E0614B87E0614B85E0614B42
S1135A1083E0614B81E0614B7FE0614B7DE0614B52
S1135A207BE0614B79E0614B77E0614B75E0614B62
S1135A3073E0614B71E0614B6FE0614B6DE0614B72
S1135A406BE0614B69E0614B67E0614B65E0614B82
S1135A5063E0614B61E0614B5FE0614B5DE0614B92
S1135A605BE0614B59E0614B57E0614B55E0614BA2
S1135A7053E0614B51E0614B4FE0614B4DE0614BB2
S1135A804BE0614B49E04FF4843346E05F4B44E024
S1135A905F4B42E05F4B40E05F4B3EE05F4B3CE0DE
S1135AA05F4B3AE05F4B38E05F4B36E04FF4B8337E
S1135AB033E05E4B31E05E4B2FE04FF4FC532CE0BF
S1135AC05C4B2AE05C4B28E05C4B26E05C4B24E01A
S1135AD05C4B22E05C4B20E05C4B1EE05C4B1CE02A
S1135AE05C4B1AE05C4B18E05C4B16E05C4B14E03A
S1135AF05C4B12E05C4B10E05C4B0EE04FF47C33EB
S1135B000BE05B4B09E05B4B07E0002305E04FF43F
S1135B10A5715948FBF7BEFB0023184603B05DF896
S1135B2004FB00BF000CC000CA4FFE1480365B00AB
S1135B3091C0402242D54A058017020000107A0025
S1135B40000AA10004F1110404411004C0C0C00003
S1135B505E1A961E4114FD01D15806195298A616D4
S1135B603882203F7A9AA6265E99A6066028923843
S1135B70569AA6165859961E4020010084A2441134
S1135B809224491251A428041058A2109079861E18
S1135B901F8AA21F7F9AA6165E1886127F18861E79
S1135BA07F9A86213F8A82205E5896173F82203F43
S1135BB061F883216218FA203F8250237F10040188
S1135BC03F84403F3F84103F5E18861E3F49921831
S1135BD05E188A1D3F49921B529A961220F8832020
S1135BE07E10043EB8111838BF40083F2385502367
S1135BF030722030B158A631C01F860000CC0C0092
S1135C004018FE0008044208411004014E14251FE8
S1135C107F9124064E14450A4692143F4E5555086A
S1135C20C04742004855551E3F8120078010B800E8
S1135C303F412C001FC4800F1F02410F4E14450E1C
S1135C409F22490C8C24291F1F02410848555502E4
S1135C5000E227005E10041F9C10081C5E60041EF6
S1135C60912228115851141E535555198815860030
S1135C7040185A080C420806ACB7000082B003462C
S1135C808DF807309DF90730002B0CDB9DF80730A9
S1135C9003F01F0205499DF907305B09012000FA52
S1135CA002F241F8232000BF02B0704700E100E097
S1135CB000B585B00390029101213F48FBF78EFDAA
S1135CC00123002205210520FEF7A2F83B4BD3F85F
S1135CD018313A4A43F02003C2F81831012308224C
S1135CE00B210220FEF794F8012308220A21022046
